{
  "_format": "hh-sol-artifact-1",
  "contractName": "Raffle",
  "sourceName": "contracts/Raffle.sol",
  "abi": [
    {
      "inputs": [
        {
          "internalType": "address",
          "name": "vrfCoordinator",
          "type": "address"
        },
        {
          "internalType": "uint256",
          "name": "entranceFee",
          "type": "uint256"
        },
        {
          "internalType": "uint64",
          "name": "subscriptionId",
          "type": "uint64"
        },
        {
          "internalType": "uint256",
          "name": "interval",
          "type": "uint256"
        }
      ],
      "stateMutability": "nonpayable",
      "type": "constructor"
    },
    {
      "inputs": [
        {
          "internalType": "address",
          "name": "have",
          "type": "address"
        },
        {
          "internalType": "address",
          "name": "want",
          "type": "address"
        }
      ],
      "name": "OnlyCoordinatorCanFulfill",
      "type": "error"
    },
    {
      "inputs": [],
      "name": "Raffle__NotOpen",
      "type": "error"
    },
    {
      "inputs": [],
      "name": "Raffle__upKeepNotNeeded",
      "type": "error"
    },
    {
      "inputs": [],
      "name": "Raffle_notEnoug",
      "type": "error"
    },
    {
      "inputs": [],
      "name": "TransferFailer",
      "type": "error"
    },
    {
      "anonymous": false,
      "inputs": [
        {
          "indexed": true,
          "internalType": "address",
          "name": "winner",
          "type": "address"
        }
      ],
      "name": "AddressWinnerPicked",
      "type": "event"
    },
    {
      "anonymous": false,
      "inputs": [
        {
          "indexed": true,
          "internalType": "address",
          "name": "player",
          "type": "address"
        }
      ],
      "name": "RaffleEnter",
      "type": "event"
    },
    {
      "anonymous": false,
      "inputs": [
        {
          "indexed": true,
          "internalType": "uint256",
          "name": "requestId",
          "type": "uint256"
        }
      ],
      "name": "RequstedRaffleWinner",
      "type": "event"
    },
    {
      "inputs": [
        {
          "internalType": "bytes",
          "name": "",
          "type": "bytes"
        }
      ],
      "name": "checkUpkeep",
      "outputs": [
        {
          "internalType": "bool",
          "name": "upkeepNeeded",
          "type": "bool"
        },
        {
          "internalType": "bytes",
          "name": "",
          "type": "bytes"
        }
      ],
      "stateMutability": "view",
      "type": "function"
    },
    {
      "inputs": [],
      "name": "enterRaffle",
      "outputs": [],
      "stateMutability": "payable",
      "type": "function"
    },
    {
      "inputs": [],
      "name": "gerRecentWinner",
      "outputs": [
        {
          "internalType": "address",
          "name": "",
          "type": "address"
        }
      ],
      "stateMutability": "view",
      "type": "function"
    },
    {
      "inputs": [],
      "name": "getEntranceFee",
      "outputs": [
        {
          "internalType": "uint256",
          "name": "",
          "type": "uint256"
        }
      ],
      "stateMutability": "view",
      "type": "function"
    },
    {
      "inputs": [],
      "name": "getInterval",
      "outputs": [
        {
          "internalType": "uint256",
          "name": "",
          "type": "uint256"
        }
      ],
      "stateMutability": "view",
      "type": "function"
    },
    {
      "inputs": [],
      "name": "getLastTimeStamp",
      "outputs": [
        {
          "internalType": "uint256",
          "name": "",
          "type": "uint256"
        }
      ],
      "stateMutability": "view",
      "type": "function"
    },
    {
      "inputs": [],
      "name": "getNumberOfPlayers",
      "outputs": [
        {
          "internalType": "uint256",
          "name": "",
          "type": "uint256"
        }
      ],
      "stateMutability": "view",
      "type": "function"
    },
    {
      "inputs": [
        {
          "internalType": "uint256",
          "name": "_index",
          "type": "uint256"
        }
      ],
      "name": "getPlayers",
      "outputs": [
        {
          "internalType": "address",
          "name": "",
          "type": "address"
        }
      ],
      "stateMutability": "view",
      "type": "function"
    },
    {
      "inputs": [],
      "name": "getRaffleState",
      "outputs": [
        {
          "internalType": "enum Raffle.RaffleState",
          "name": "",
          "type": "uint8"
        }
      ],
      "stateMutability": "view",
      "type": "function"
    },
    {
      "inputs": [
        {
          "internalType": "bytes",
          "name": "",
          "type": "bytes"
        }
      ],
      "name": "performUpkeep",
      "outputs": [],
      "stateMutability": "nonpayable",
      "type": "function"
    },
    {
      "inputs": [
        {
          "internalType": "uint256",
          "name": "requestId",
          "type": "uint256"
        },
        {
          "internalType": "uint256[]",
          "name": "randomWords",
          "type": "uint256[]"
        }
      ],
      "name": "rawFulfillRandomWords",
      "outputs": [],
      "stateMutability": "nonpayable",
      "type": "function"
    },
    {
      "inputs": [
        {
          "internalType": "uint256",
          "name": "",
          "type": "uint256"
        }
      ],
      "name": "s_randomWords",
      "outputs": [
        {
          "internalType": "uint256",
          "name": "",
          "type": "uint256"
        }
      ],
      "stateMutability": "view",
      "type": "function"
    },
    {
      "inputs": [],
      "name": "s_requestId",
      "outputs": [
        {
          "internalType": "uint256",
          "name": "",
          "type": "uint256"
        }
      ],
      "stateMutability": "view",
      "type": "function"
    }
  ],
  "bytecode": "0x60c06040527fd89b2bf150e3b9e13446986e571fb9cab24b13cea0a43ea20a6049a85cc807cc60001b600155620186a0600260006101000a81548163ffffffff021916908363ffffffff1602179055506003600260046101000a81548161ffff021916908361ffff1602179055506001600260066101000a81548163ffffffff021916908363ffffffff1602179055503480156200009c57600080fd5b5060405162001720380380620017208339818101604052810190620000c29190620001ec565b838073ffffffffffffffffffffffffffffffffffffffff1660808173ffffffffffffffffffffffffffffffffffffffff1660601b8152505050826009819055508373ffffffffffffffffffffffffffffffffffffffff1660a08173ffffffffffffffffffffffffffffffffffffffff1660601b81525050816000806101000a81548167ffffffffffffffff021916908367ffffffffffffffff1602179055506000600660146101000a81548160ff021916908360028111156200018a5762000189620002b0565b5b021790555042600781905550806008819055505050505062000332565b600081519050620001b881620002e4565b92915050565b600081519050620001cf81620002fe565b92915050565b600081519050620001e68162000318565b92915050565b60008060008060808587031215620002095762000208620002df565b5b60006200021987828801620001a7565b94505060206200022c87828801620001be565b93505060406200023f87828801620001d5565b92505060606200025287828801620001be565b91505092959194509250565b60006200026b8262000272565b9050919050565b600073ffffffffffffffffffffffffffffffffffffffff82169050919050565b6000819050919050565b600067ffffffffffffffff82169050919050565b7f4e487b7100000000000000000000000000000000000000000000000000000000600052602160045260246000fd5b600080fd5b620002ef816200025e565b8114620002fb57600080fd5b50565b620003098162000292565b81146200031557600080fd5b50565b62000323816200029c565b81146200032f57600080fd5b50565b60805160601c60a05160601c6113bb6200036560003960006105bd01526000818161032b015261037f01526113bb6000f3fe6080604052600436106100c25760003560e01c80636e04ff0d1161007f578063c5ddfe6511610059578063c5ddfe651461024a578063e89e106a14610275578063f6eaffc8146102a0578063fd6673f5146102dd576100c2565b80636e04ff0d146101b657806391ad27b4146101f4578063c1c244e81461021f576100c2565b806309bc33a7146100c7578063115cbaf5146100f25780631fe543e31461011d5780632cfcc539146101465780634585e33b14610150578063460e204914610179575b600080fd5b3480156100d357600080fd5b506100dc610308565b6040516100e99190610ff8565b60405180910390f35b3480156100fe57600080fd5b50610107610312565b6040516101149190610fdd565b60405180910390f35b34801561012957600080fd5b50610144600480360381019061013f9190610dd1565b610329565b005b61014e6103e9565b005b34801561015c57600080fd5b5061017760048036038101906101729190610ce1565b61053a565b005b34801561018557600080fd5b506101a0600480360381019061019b9190610d77565b6106ed565b6040516101ad9190610f16565b60405180910390f35b3480156101c257600080fd5b506101dd60048036038101906101d89190610d2e565b610735565b6040516101eb929190610f5a565b60405180910390f35b34801561020057600080fd5b506102096107ff565b6040516102169190610ff8565b60405180910390f35b34801561022b57600080fd5b50610234610809565b6040516102419190610ff8565b60405180910390f35b34801561025657600080fd5b5061025f610813565b60405161026c9190610f16565b60405180910390f35b34801561028157600080fd5b5061028a61083d565b6040516102979190610ff8565b60405180910390f35b3480156102ac57600080fd5b506102c760048036038101906102c29190610d77565b610843565b6040516102d49190610ff8565b60405180910390f35b3480156102e957600080fd5b506102f2610867565b6040516102ff9190610ff8565b60405180910390f35b6000600954905090565b6000600660149054906101000a900460ff16905090565b7f000000000000000000000000000000000000000000000000000000000000000073ffffffffffffffffffffffffffffffffffffffff163373ffffffffffffffffffffffffffffffffffffffff16146103db57337f00000000000000000000000000000000000000000000000000000000000000006040517f1cf993f40000000000000000000000000000000000000000000000000000000081526004016103d2929190610f31565b60405180910390fd5b6103e58282610879565b5050565b600954341015610425576040517f2c0b50af00000000000000000000000000000000000000000000000000000000815260040160405180910390fd5b600060028111156104395761043861129b565b5b600660149054906101000a900460ff16600281111561045b5761045a61129b565b5b14610492576040517f1425571c00000000000000000000000000000000000000000000000000000000815260040160405180910390fd5b600a339080600181540180825580915050600190039060005260206000200160009091909190916101000a81548173ffffffffffffffffffffffffffffffffffffffff021916908373ffffffffffffffffffffffffffffffffffffffff1602179055503373ffffffffffffffffffffffffffffffffffffffff167f0805e1d667bddb8a95f0f09880cf94f403fb596ce79928d9f29b74203ba284d460405160405180910390a2565b600061055460405180602001604052806000815250610735565b5090508061058e576040517f9a5c425c00000000000000000000000000000000000000000000000000000000815260040160405180910390fd5b6002600660146101000a81548160ff021916908360028111156105b4576105b361129b565b5b021790555060007f000000000000000000000000000000000000000000000000000000000000000073ffffffffffffffffffffffffffffffffffffffff16635d3b1d3060015460008054906101000a900467ffffffffffffffff16600260049054906101000a900461ffff16600260009054906101000a900463ffffffff16600260069054906101000a900463ffffffff166040518663ffffffff1660e01b8152600401610666959493929190610f8a565b602060405180830381600087803b15801561068057600080fd5b505af1158015610694573d6000803e3d6000fd5b505050506040513d601f19601f820116820180604052508101906106b89190610da4565b9050807f5787897ac6e37574567ab6b1f13760cf73602b333c66ba9ecf1077d9240a2c0160405160405180910390a250505050565b6000600a8281548110610703576107026112ca565b5b9060005260206000200160009054906101000a900473ffffffffffffffffffffffffffffffffffffffff169050919050565b600060606000600660149054906101000a900460ff16600281111561075d5761075c61129b565b5b600060028111156107715761077061129b565b5b14905060006008546007544261078791906110bc565b119050600080600a80549050119050600080471190508380156107a75750825b80156107b05750815b80156107b95750805b9550856040518060400160405280600381526020017f30783000000000000000000000000000000000000000000000000000000000008152509550955050505050915091565b6000600854905090565b6000600754905090565b6000600660009054906101000a900473ffffffffffffffffffffffffffffffffffffffff16905090565b60045481565b6003818154811061085357600080fd5b906000526020600020016000915090505481565b600080600a8054905090508091505090565b6000600a8054905082600081518110610895576108946112ca565b5b60200260200101516108a7919061120c565b90506000600a82815481106108bf576108be6112ca565b5b9060005260206000200160009054906101000a900473ffffffffffffffffffffffffffffffffffffffff16905080600660006101000a81548173ffffffffffffffffffffffffffffffffffffffff021916908373ffffffffffffffffffffffffffffffffffffffff1602179055506000600660146101000a81548160ff021916908360028111156109535761095261129b565b5b0217905550600067ffffffffffffffff811115610973576109726112f9565b5b6040519080825280602002602001820160405280156109a15781602001602082028036833780820191505090505b50600a90805190602001906109b7929190610aac565b504260078190555060008173ffffffffffffffffffffffffffffffffffffffff16476040516109e590610f01565b60006040518083038185875af1925050503d8060008114610a22576040519150601f19603f3d011682016040523d82523d6000602084013e610a27565b606091505b5050905080610a62576040517f801ddf5300000000000000000000000000000000000000000000000000000000815260040160405180910390fd5b8173ffffffffffffffffffffffffffffffffffffffff167fc2699f2452837b3c26c2d4d2fad0201f31570c3c69641a2a6cf1cf104ac391a160405160405180910390a25050505050565b828054828255906000526020600020908101928215610b25579160200282015b82811115610b245782518260006101000a81548173ffffffffffffffffffffffffffffffffffffffff021916908373ffffffffffffffffffffffffffffffffffffffff16021790555091602001919060010190610acc565b5b509050610b329190610b36565b5090565b5b80821115610b4f576000816000905550600101610b37565b5090565b6000610b66610b6184611038565b611013565b90508083825260208201905082856020860282011115610b8957610b88611332565b5b60005b85811015610bb95781610b9f8882610cb7565b845260208401935060208301925050600181019050610b8c565b5050509392505050565b6000610bd6610bd184611064565b611013565b905082815260208101848484011115610bf257610bf1611337565b5b610bfd848285611199565b509392505050565b600082601f830112610c1a57610c1961132d565b5b8135610c2a848260208601610b53565b91505092915050565b60008083601f840112610c4957610c4861132d565b5b8235905067ffffffffffffffff811115610c6657610c65611328565b5b602083019150836001820283011115610c8257610c81611332565b5b9250929050565b600082601f830112610c9e57610c9d61132d565b5b8135610cae848260208601610bc3565b91505092915050565b600081359050610cc68161136e565b92915050565b600081519050610cdb8161136e565b92915050565b60008060208385031215610cf857610cf7611341565b5b600083013567ffffffffffffffff811115610d1657610d1561133c565b5b610d2285828601610c33565b92509250509250929050565b600060208284031215610d4457610d43611341565b5b600082013567ffffffffffffffff811115610d6257610d6161133c565b5b610d6e84828501610c89565b91505092915050565b600060208284031215610d8d57610d8c611341565b5b6000610d9b84828501610cb7565b91505092915050565b600060208284031215610dba57610db9611341565b5b6000610dc884828501610ccc565b91505092915050565b60008060408385031215610de857610de7611341565b5b6000610df685828601610cb7565b925050602083013567ffffffffffffffff811115610e1757610e1661133c565b5b610e2385828601610c05565b9150509250929050565b610e36816110f0565b82525050565b610e4581611102565b82525050565b610e548161110e565b82525050565b6000610e6582611095565b610e6f81856110a0565b9350610e7f8185602086016111a8565b610e8881611346565b840191505092915050565b610e9c81611187565b82525050565b6000610eaf6000836110b1565b9150610eba82611357565b600082019050919050565b610ece8161112b565b82525050565b610edd81611159565b82525050565b610eec81611163565b82525050565b610efb81611173565b82525050565b6000610f0c82610ea2565b9150819050919050565b6000602082019050610f2b6000830184610e2d565b92915050565b6000604082019050610f466000830185610e2d565b610f536020830184610e2d565b9392505050565b6000604082019050610f6f6000830185610e3c565b8181036020830152610f818184610e5a565b90509392505050565b600060a082019050610f9f6000830188610e4b565b610fac6020830187610ef2565b610fb96040830186610ec5565b610fc66060830185610ee3565b610fd36080830184610ee3565b9695505050505050565b6000602082019050610ff26000830184610e93565b92915050565b600060208201905061100d6000830184610ed4565b92915050565b600061101d61102e565b905061102982826111db565b919050565b6000604051905090565b600067ffffffffffffffff821115611053576110526112f9565b5b602082029050602081019050919050565b600067ffffffffffffffff82111561107f5761107e6112f9565b5b61108882611346565b9050602081019050919050565b600081519050919050565b600082825260208201905092915050565b600081905092915050565b60006110c782611159565b91506110d283611159565b9250828210156110e5576110e461123d565b5b828203905092915050565b60006110fb82611139565b9050919050565b60008115159050919050565b6000819050919050565b60008190506111268261135a565b919050565b600061ffff82169050919050565b600073ffffffffffffffffffffffffffffffffffffffff82169050919050565b6000819050919050565b600063ffffffff82169050919050565b600067ffffffffffffffff82169050919050565b600061119282611118565b9050919050565b82818337600083830152505050565b60005b838110156111c65780820151818401526020810190506111ab565b838111156111d5576000848401525b50505050565b6111e482611346565b810181811067ffffffffffffffff82111715611203576112026112f9565b5b80604052505050565b600061121782611159565b915061122283611159565b9250826112325761123161126c565b5b828206905092915050565b7f4e487b7100000000000000000000000000000000000000000000000000000000600052601160045260246000fd5b7f4e487b7100000000000000000000000000000000000000000000000000000000600052601260045260246000fd5b7f4e487b7100000000000000000000000000000000000000000000000000000000600052602160045260246000fd5b7f4e487b7100000000000000000000000000000000000000000000000000000000600052603260045260246000fd5b7f4e487b7100000000000000000000000000000000000000000000000000000000600052604160045260246000fd5b600080fd5b600080fd5b600080fd5b600080fd5b600080fd5b600080fd5b6000601f19601f8301169050919050565b50565b6003811061136b5761136a61129b565b5b50565b61137781611159565b811461138257600080fd5b5056fea2646970667358221220adcb8827272ae85293d30128b51f03ebe9ccf66542d55f3f7fb20c40ee7b690a64736f6c63430008070033",
  "linkReferences": {},
  "deployedLinkReferences": {}
}